:020000040000FA
:060000001DEF02F01200EA
:020006001200E6
:0600080033EF01F01200CD
:02000E00C250DE
:08001000020B01E0010E1200D9
:0600180035EF01F01200BB
:02001E000100DF
:0C0020006C0400009600000001000000CD
:04002C00838E956AC0
:10003000838E0001010E966FF00E9516831695982B
:10004000959C959A8398839C839A5CD88AD889D802
:1000500088D8F00E83168382B7D8280E8ED8080E63
:100060008CD8010E8AD8060E88D80F0E86D80001CB
:10007000966B12007DD80001960501E14BD8000176
:10008000965101E147D88398839C839A45D070D8D4
:1000900041D8839A8388839C3FD08398838A839CAA
:1000A0000F0E9512F00E8316838C30D80001960542
:1000B00004E183B6FED7C1EF00F0965103E183B6A9
:1000C000FED75FD8120088D8839836D87F0EDF1409
:1000D000E5527ED081D883882FD8DF50E55278D082
:1000E00047D855D805E053D860D8FBE3DB2AF9D7C9
:1000F0006FD03ED861D805E05FD857D8FBE3DB2A44
:10010000F9D766D00F0E4CD0040E4AD00000000084
:1001100000001200020E44D0F00E8316FE0EDB38F3
:100120000F0B0F0B831250D8F00E8316FE0EDB5010
:100130000F0B831249D84CD0838A839C0F0E9512E3
:10014000838CE4DF8338F00BF00BDF6E839CDEDF03
:10015000838CDCDF0F0E8314DF12839CF00E951668
:100160001200F00E8316030E83122ED884EF00F0D7
:10017000D9CFE6FFE1CFD9FF1200E66E7BDFE55273
:100180001200839CC3DF20D8F00E95161200FD0EDE
:10019000DBCFF6FFFE0EDBCFF7FF0800F5501200B5
:1001A000E66EFDEC01F0E5521200E66E70DFE552FE
:1001B000FD0EDB2AFE0E1200FD0EDBCFE9FFFE0E68
:1001C000DBCFEAFFEF501200838CA0DF839C12008C
:1001D000E552E7CFD9FF1200CBDFE652DF6A8AEFA4
:0201E00000F02D
:0E01E200D38CD38AD3980E0EE66E040EE66E12
:1001F0009B0EE66E98EC01F0E552E552E5529280D6
:100200009292946894929494870EE66EE6EC01F0D4
:10021000E55234EC02F007EC00F00009FCE12BECB5
:1002200002F0F3CF80F0F4CF81F00001F434ECE27F
:100230008051E808030E8155E7E21E0EE66ECFEC12
:1002400001F0E5520001813504E28051ED08030E12
:10025000815502E3000E01D0010EE8B08082E8B0C3
:10026000D3D78092D1D70ED81100D8CFE4FFE0CFFA
:10027000E4FFE46E07D8E550E5CFE0FFE5CFD8FF17
:1002800010001200DACFE4FFE652E552E5CFDAFFC4
:0202900012005A
:0E0292001E0EF66E000EF76E000EF86E0001E6
:1002A0000900F550916F0900F550926F03E19167D5
:1002B00001D03DD00900F5508C6F0900F5508D6FCD
:1002C0000900F5508E6F09000900F550E96E09002C
:1002D000F550EA6E090009000900F5508F6F09001A
:1002E000F550906F09000900F6CF93F0F7CF94F026
:1002F000F8CF95F08CC0F6FF8DC0F7FF8EC0F8FFE9
:1003000000018F5302E1905307E00900F550EE6EB3
:100310008F07F8E29007F9D793C0F6FF94C0F7FF74
:1003200095C0F8FF00019107000E925BBFD7120045
:10033000D9CFE6FFDACFE6FFE1CFD9FFE2CFDAFF90
:10034000C26AC06AFC0EDB407F0B3C0BC26EFC0E27
:10035000DB38F00B300B006EFB0EDB500F0B001088
:10036000C16EFD0EDB50040DF350380B016EFD0E17
:10037000DB380F0B070B006EFD0EDB50800B0010FF
:100380000110C06EFC0EDBAE03D09E9C9D8CF28CE7
:0E039000C280E552E5CFDAFFE7CFD9FF1200B9
:02039E00FF0E50
:1003A000E350076EEF0E01D0F30EE76EE72ED6EFA7
:1003B00001F00C0E066EE76AE72EDCEF01F0062E68
:0C03C000DBEF01F0072ED4EF01F012007B
:0403CC00D9CFE6FFA0
:1003D000DACFE6FFE1CFD9FFE2CFDAFFC30EC214D6
:1003E000006EFD0EDB407F0B3C0B0010C26EE55231
:0A03F000E5CFDAFFE7CFD9FF1200D6
:0603FA00FF0EE350076E48
:10040000480E01D04C0EE76EE72EFED7E76AE72EC6
:0A041000FED7072EF7D700001200F8
:06041A00000EF36E00EE7F
:1004200000F0060E01D81200EA6002D0EE6AFCD796
:0A043000F350E9601200EE6AFCD7F9
:06043A0015EE00F025EEB6
:1004400000F0F86A059C49EC01F003EC00F0F1ECD7
:0604500000F0FBD71200D2
:0A045600C450036E026AC350021086
:08046000F36E03C0F4FF12006B
:04046800C28212003A
:01046C00008F
:020000040030CA
:0100010008F6
:0100020019E4
:010003001EDE
:010006008178
:00000001FF
